:100000000C9463000C948B000C948B000C94C3062E
:100010000C94C3060C94C3060C948B000C948B00B8
:100020000C948B000C948B000C948B000C948B0024
:100030000C948B000C943B070C948B000C948B005D
:100040000C9421060C948B000C9491060C946B0676
:100050000C948B000C948B000C948B000C948B00F4
:100060000C948B000C948B000000000024002700EF
:100070002A0000000008000201000003040700003D
:1000800000000000000000000000230026002900FE
:1000900000000000250028002B00040404040404D0
:1000A0000404020202020202030303030303010227
:1000B00004081020408001020408102001020408F6
:1000C00010206207510B11241FBECFEFD8E0DEBF16
:1000D000CDBF23E0AAEEB1E001C01D92A132B2076C
:1000E000E1F711E0A0E0B1E0E6E4FFE102C0059035
:1000F0000D92AA3EB107D9F710E0C2E6D0E004C0E5
:100100002197FE010E949E0DC136D107C9F70E94BA
:1001100044080C94960F0C940000833081F028F46E
:10012000813099F08230A9F008958730A9F08830A5
:10013000C9F08430B1F4809180008F7D03C080913C
:1001400080008F7780938000089584B58F7784BD79
:10015000089584B58F7DFBCF8091B0008F77809319
:10016000B00008958091B0008F7DF9CFCF93DF93D9
:10017000282F30E0F901EE58FF4F8491F901E25544
:10018000FF4FD491F901E656FF4FC491CC23A1F063
:1001900081110E948D00EC2FF0E0EE0FFF1FEA5757
:1001A000FF4FA591B491EC91ED2381E090E009F42B
:1001B00080E0DF91CF91089580E090E0FACF1F9327
:1001C000CF93DF93282F30E0F901EE58FF4F849151
:1001D000F901E255FF4FD491F901E656FF4FC49162
:1001E000CC23A9F0162F81110E948D00EC2FF0E096
:1001F000EE0FFF1FE057FF4FA591B4918FB7F89412
:10020000EC91111108C0D095DE23DC938FBFDF91F4
:10021000CF911F910895DE2BF8CFCF93DF9390E01D
:10022000FC01E255FF4F249186569F4FFC018491BB
:100230008823C9F090E0880F991FFC01E859FF4F0F
:10024000A591B491FC01E057FF4FC591D491611184
:100250000DC09FB7F8948C91209582238C93888150
:10026000282328839FBFDF91CF910895623051F4F6
:100270009FB7F8943C91822F809583238C93E881DB
:100280002E2BEFCF8FB7F894EC912E2B2C938FBFA2
:10029000EACFAF92BF92CF92DF92EF92FF920F938D
:1002A0001F93CF93DF936C017B018B01040F151F0C
:1002B000EB015E01AE18BF08C017D10759F0699174
:1002C000D601ED91FC910190F081E02DC6010995D8
:1002D000892B79F7C501DF91CF911F910F91FF9085
:1002E000EF90DF90CF90BF90AF900895FC01538DB9
:1002F000448D252F30E0842F90E0821B930B541700
:1003000010F0CF96089501970895FC01918D828D8C
:10031000981761F0A28DAE0FBF2FB11D5D968C9125
:10032000928D9F5F9F73928F90E008958FEF9FEF64
:100330000895FC01918D828D981731F0828DE80F20
:10034000F11D858D90E008958FEF9FEF0895FC01DA
:10035000918D228D892F90E0805C9F4F821B9109A7
:100360008F739927089589E492E00E94A70121E004
:10037000892B09F420E0822F089580E090E0892BFA
:1003800029F00E94B30181110C9400000895FC0132
:10039000A48DA80FB92FB11DA35ABF4F2C91848DE6
:1003A00090E001968F739927848FA689B7892C9343
:1003B000A089B1898C91837080648C93938D848D96
:1003C000981306C00288F389E02D80818F7D808399
:1003D0000895EF92FF920F931F93CF93DF93EC0159
:1003E00081E0888F9B8D8C8D98131AC0E889F989DC
:1003F000808185FF15C09FB7F894EE89FF896083DF
:10040000E889F98980818370806480839FBF81E05F
:1004100090E0DF91CF911F910F91FF90EF900895A1
:10042000F62E0B8D10E00F5F1F4F0F731127E02E7C
:100430008C8D8E110CC00FB607FCFACFE889F989B4
:10044000808185FFF5CFCE010E94C701F1CFEB8DF2
:10045000EC0FFD2FF11DE35AFF4FF0829FB7F89488
:100460000B8FEA89FB8980818062CFCFCF93DF93A6
:10047000EC01888D8823B9F0AA89BB89E889F989BC
:100480008C9185FD03C0808186FD0DC00FB607FCF1
:10049000F7CF8C9185FFF2CF808185FFEDCFCE0124
:1004A0000E94C701E9CFDF91CF91089520912C02DE
:1004B00030912D022817390771F490912A0280910A
:1004C0002B02981741F0E0912A02F0E0E651FE4F2E
:1004D000808190E008958FEF9FEF08950895EF9247
:1004E000FF920F931F93CF93DF93DC015C96ED9007
:1004F000FC905D97E114F10479F481E090E01396AB
:100500009C938E93129790E080E0DF91CF911F91A2
:100510000F91FF90EF9008955196ED91FC915297B5
:1005200050968C915097982F90950FB75E962C917E
:100530005E97122F127021FD6095F894208111238F
:1005400019F1282B2083E7012197F1F728E0462FA6
:1005500050E0308160FF1AC0382B3083E7012197CB
:10056000F1F7BA0175956795215089F7112381F04C
:100570008081892380830FBF5C968D919C91019728
:10058000F1F781E090E0C1CF2923DCCF3923E5CF1B
:100590009081892BEFCF20912C0230912D022817CA
:1005A000390761F480912B0220912A0290E0805C4F
:1005B0009F4F821B91098F739927089590E080E0E7
:1005C000089520912C0230912D0228173907B9F493
:1005D00090912A0280912B02981789F0E0912A02CB
:1005E000F0E0E651FE4F808120912A0230E02F5F3B
:1005F0003F4F2F73332720932A0290E008958FEF07
:100600009FEF0895089590E080E00895CF93DF93E1
:10061000EC0160E08E810E94DF0061E08E810E942B
:10062000DF0060E08E810E94DF008BE891E001979F
:10063000F1F7DF91CF910895CF92DF92EF92FF9281
:100640000F931F93CF93DF936C017C0187E0E80E3B
:10065000F11CD0E0C0E0062F10E0B8010C2E02C063
:10066000759567950A94E2F76170F70181917F01B2
:100670000E94DF002196C430D10579F7C601DF91D1
:10068000CF911F910F91FF90EF90DF90CF900C943E
:100690000603CF92DF92EF92FF920F931F93CF93B7
:1006A000DF93EC01F62E642F8C810E94DF008D8198
:1006B0008F3F19F060E00E94DF000F2D10E08F8562
:1006C00084FF25C06E0187E0C80ED11CF12CE12CFF
:1006D000B8010E2C02C0759567950A94E2F7617017
:1006E000F60181916F010E94DF00FFEFEF1AFF0A10
:1006F00088E0E816F10461F7CE01DF91CF911F91F8
:100700000F91FF90EF90DF90CF900C940603B8010B
:1007100084E0759567958A95E1F7CE010E941C03E8
:100720006F2DCE01DF91CF911F910F91FF90EF9030
:10073000DF90CF900C941C0340E0682F85E093E09D
:100740000C94490390911803691710F06FEF690F2B
:10075000E62FF0E0EB5FFC4F9489890F80680C94E2
:100760009C03CF93DF93613029F09091140398603C
:1007700090931403609318031092190390E49093DC
:100780001A0380931B03805C80931C0361E08091BB
:1007900009030E940D0180910A038F3F19F061E067
:1007A0000E940D0161E080910B030E940D01C5E0E4
:1007B000D3E09E01255033408091140384FD0BC08B
:1007C00084E090E021962817390744F461E08E8197
:1007D0000E940D01EECF88E090E0F4CF8BE39DE026
:1007E0000197F1F760E0809109030E94DF0060E06B
:1007F00080910B030E94DF0080910A038F3F19F064
:1008000060E00E94DF008091140384FD39C063E042
:1008100085E093E00E941C03CBE4D6E4CE0101976F
:10082000F1F763E085E093E00E941C032197F1F764
:1008300063E085E093E00E941C0383E592E001976A
:10084000F1F762E085E093E00E941C0380911403BD
:1008500080620E949C0384E0809315038CE00E94D8
:100860009C0381E00E949C038BE39FE10197F1F7D9
:1008700082E08093160386E0DF91CF910C949C0375
:1008800080620E949C038BE496E40197F1F78091CB
:10089000140380620E949C0383E592E00197F1F7C4
:1008A0008091140380620E949C03D0CF41E00E949B
:1008B000490381E090E00895FB0101900020E9F7F1
:1008C0003197AF01461B570BDC01ED91FC91028083
:1008D000F381E02D09944F925F926F927F92AF92D5
:1008E000BF92CF92DF92EF92FF920F931F93CF931D
:1008F000DF93CDB7DEB7A1970FB6F894DEBF0FBE7A
:10090000CDBF5C016A017B01F7FE47C0DC01ED91C0
:10091000FC910190F081E02D6DE209958C01222778
:100920003327A9012C193D094E095F0919A2FE01BF
:10093000B1967F019AE0492E512C612C712CCA018D
:10094000B901A30192010E947C0D605DD7016E93F5
:100950007D01211531054105510589F790E080E0C1
:10096000109721F0BD01C5010E945C04800F911F0A
:10097000A1960FB6F894DEBF0FBECDBFDF91CF9129
:100980001F910F91FF90EF90DF90CF90BF90AF90AD
:100990007F906F905F904F900895AB01960119A2E0
:1009A0008E010F5D1F4F8AE0C82ED12CE12CF12C57
:1009B000CA01B901A70196010E947C0D605DF80192
:1009C00062938F01211531054105510589F790E0AA
:1009D00080E0309769F2BF01C5010E945C04C8CF76
:1009E000CF93DF93FC01448155816081718189E45B
:1009F00092E00E944901EC0166E371E089E492E033
:100A00000E945C048C0F9D1FDF91CF9108950C9480
:100A10005C04CF93DF938091380290913902019763
:100A2000E9F4C0913402D09135022196D093350279
:100A3000C093340261E08EE00E94A203AE01DD0F9C
:100A4000660B770B85E093E00E946B046AE771E028
:100A500085E093E0DF91CF910C940705DF91CF9172
:100A600008950F931F93CF93DF93EC0188819981B1
:100A7000009759F02A813B812617370730F081E033
:100A8000DF91CF911F910F9108958B016F5F7F4F81
:100A90000E94C90E009759F0998388831B830A83AB
:100AA0002C813D81232B59F7FC011082E8CF80E097
:100AB000E7CFCF93DF93EC0188819981009711F004
:100AC0000E94400E198218821D821C821B821A828B
:100AD000DF91CF910895EF92FF920F931F93CF93E1
:100AE000DF93EC017B01198218821B821A821D821E
:100AF0001C82FB0101900020E9F731978F01061B52
:100B0000170BB8010E943105811109C0CE01DF9198
:100B1000CF911F910F91FF90EF900C9459051D8379
:100B20000C83B70188819981DF91CF911F910F913B
:100B3000FF90EF900C948F0FCF92DF92EF92FF9285
:100B40000F931F93CF93DF93CDB7DEB762970FB6A6
:100B5000F894DEBF0FBECDBF8C01CB01F80111822E
:100B6000108213821282158214824AE09E012F5F46
:100B70003F4F6901B9010E946D0BF6010190002001
:100B8000E9F731977F01EC18FD08B701C8010E9411
:100B90003105811112C0C8010E94590562960FB635
:100BA000F894DEBF0FBECDBFDF91CF911F910F91A3
:100BB000FF90EF90DF90CF900895F801F582E482E6
:100BC000B601808191810E948F0FE8CFEF92FF9252
:100BD0000F931F93CF93DF93EC01FB01E080F18033
:100BE000E114F10411F10481158101151105A9F039
:100BF0008C819D81080F191FB801CE010E9431051B
:100C0000882399F0288139818C819D81B701820FD9
:100C1000931F0E948F0F1D830C83CE01DF91CF9114
:100C20001F910F91FF90EF900895CE010E945905FA
:100C3000F4CFFC0180819181009711F00C94400E5B
:100C400008951F920F920FB60F9211242F933F9386
:100C50008F939F93AF93BF938091450290914602EB
:100C6000A0914702B09148023091440223E0230F43
:100C70002D3758F50196A11DB11D20934402809394
:100C8000450290934602A0934702B0934802809198
:100C9000400290914102A0914202B091430201961C
:100CA000A11DB11D8093400290934102A093420286
:100CB000B0934302BF91AF919F918F913F912F913C
:100CC0000F900FBE0F901F90189526E8230F0296E5
:100CD000A11DB11DD2CF1F920F920FB60F921124FA
:100CE0002F933F934F935F936F937F938F939F9334
:100CF000AF93BF93EF93FF9389E492E00E94C70103
:100D0000FF91EF91BF91AF919F918F917F916F91E3
:100D10005F914F913F912F910F900FBE0F901F90B9
:100D200018951F920F920FB60F9211242F938F9345
:100D30009F93EF93FF93E0915902F0915A028081C3
:100D4000E0915F02F091600282FD1BC09081809172
:100D500062028F5F8F7320916302821741F0E091EE
:100D60006202F0E0E75BFD4F958F80936202FF9196
:100D7000EF919F918F912F910F900FBE0F901F9029
:100D800018958081F4CF1F920F920FB60F92112405
:100D90002F933F934F935F936F937F938F939F9383
:100DA000AF93BF93EF93FF93E0912C02F0912D024C
:100DB000309749F0A685B7858585968D91FF14C03B
:100DC0009C918923A1F4FF91EF91BF91AF919F91E5
:100DD0008F917F916F915F914F913F912F910F90E4
:100DE0000FBE0F901F9018959C91892361F7A389DE
:100DF000B4899C918589809589238C93868997896C
:100E00000197F1F7608D718DA685B785558538E01E
:100E100020E0CB010197F1F7822F90E0959587951F
:100E2000282F4C91452309F02068315091F7868D89
:100E300081FD209580912B0290E001968F73992778
:100E400030912A02381799F0A0912B02B0E0A651F8
:100E5000BE4F2C9380932B02828D938D0197F1F7D7
:100E6000A389B4898C919589892B8C93ACCF868D7D
:100E70008160868FF1CF1F920F920FB60F921124CF
:100E80002F933F934F935F936F937F938F939F9392
:100E9000AF93BF93EF93FF93E0912E02F0912F0257
:100EA0000995FF91EF91BF91AF919F918F917F91A4
:100EB0006F915F914F913F912F910F900FBE0F90C7
:100EC0001F901895CF92DF92EF92FF9210924C02F2
:100ED00010924B0298EEC92E93E0D92EE12CF12C02
:100EE000C0924D02D0924E02E0924F02F092500218
:100EF0008AE091E090934A028093490285EC90E069
:100F0000909356028093550284EC90E0909358029F
:100F10008093570280EC90E090935A02809359029C
:100F200081EC90E090935C0280935B0282EC90E015
:100F300090935E0280935D0286EC90E09093600255
:100F400080935F0210926202109263021092640218
:100F50001092650210920803109207038EE291E04E
:100F600090930603809305038DE0809309038FEF30
:100F700080930A038CE080930B038BE080930C0337
:100F80008AE080930D0389E080930E0388E08093CC
:100F90000F0310921003109211031092120310927B
:100FA00013031092140361E080E10E94B1031092D8
:100FB000E9021092E802C092EA02D092EB02E092BB
:100FC000EC02F092ED028CE191E09093E7028093C5
:100FD000E6021092FD021092FC021092FF021092A3
:100FE000FE0210920103109200031092030310926C
:100FF0000203609104036E7F6D7F60930403669526
:10100000617081E0682783E00E94DF0061E083E097
:101010000E940D01E1EBF0E0E491E093F602EDE9CE
:10102000F0E0E491F0E0EE0FFF1FE057FF4F8591F5
:1010300094919093F8028093F70260E082E00E941E
:101040000D018091040381FD04C061E082E00E94F3
:10105000DF0082E08093F202E0EBF0E0E491E093C5
:10106000F302ECE9F0E0E491F0E0EE0FFF1FEA5745
:10107000FF4F859194919093F5028093F402FF9035
:10108000EF90DF90CF900895CF93DF93CDB7DEB789
:1010900062970FB6F894DEBF0FBECDBF789484B5CB
:1010A000826084BD84B5816084BD85B5826085BD64
:1010B00085B5816085BD80916E00816080936E00F2
:1010C00010928100809181008260809381008091E4
:1010D0008100816080938100809180008160809395
:1010E00080008091B10084608093B1008091B00055
:1010F00081608093B00080917A00846080937A0050
:1011000080917A00826080937A0080917A00816079
:1011100080937A0080917A00806880937A001092A0
:10112000C100E0915902F0915A0282E08083E0917F
:101130005502F09156021082E0915702F091580248
:101140008FEC808310926102E0915D02F0915E026B
:1011500086E08083E0915B02F0915C028081806197
:101160008083E0915B02F0915C02808188608083E3
:10117000E0915B02F0915C02808180688083E09165
:101180005B02F0915C0280818F7D808364E084E16A
:101190000E94B10360E087E00E940D0162E082E0FE
:1011A0000E940D0180E1809381001092800082E115
:1011B0009AE7909387008093860084E18093810072
:1011C00089E095E090932F0280932E0281E0809336
:1011D0006F0010920103109200031092FF02109210
:1011E000FE021092FD021092FC028DE991E09093B4
:1011F0000303809302039091F202963108F047C0F6
:101200002DEB30E03093FD022093FC022BE931E01E
:101210003093FF022093FE022CE231E03093010371
:10122000209300032091680084E0983048F031E07A
:101230009E3008F430E081E001C0880F3A95EAF76B
:10124000822B809368002DE630E0983050F02BE63A
:1012500030E09E3030F02CE630E0963110F030E097
:1012600020E03093FA022093F902292F30E09830E1
:1012700008F006C281E001C0880F9A95EAF78093D2
:10128000FB0280910203909103030197F1F7809193
:10129000000390910103892B49F1E0912C02F09118
:1012A0002D0202E0E63EF00709F1309739F0A389FC
:1012B000B4899C918589809589238C9380910403BE
:1012C0008E7F8093040310922B0210922A0286EEE6
:1012D00092E090932D0280932C02E091F902F0911C
:1012E000FA0280819091FB02892B808381E00E9429
:1012F0009C038BE39FE10197F1F760E080E00E949F
:10130000A20369E371E085E093E00E94070561E0D4
:1013100080E00E94A2036BE471E085E093E00E940C
:10132000070563E080E00E94A2036AE571E085E0C2
:1013300093E00E94070562E080E00E94A20369E654
:1013400071E085E093E00E94070580E4982E96E026
:10135000892E20E0C22E20E0D22EAA24A394B12C04
:101360002FB7F8948091450290914602A0914702D0
:10137000B09148022FBF40913C0250913D026091D4
:101380003E0270913F028C019D01041B150B260B40
:10139000370BB901A801443651056105710508F400
:1013A00048C080933C0290933D02A0933E02B093CC
:1013B0003F0290927C0080917A00806480937A0052
:1013C00080917A0086FDFCCF609178007091790061
:1013D000072E000C880B990B0E94A40B20E030EC28
:1013E0004FE754E40E94D40C20E030E44CE955E48B
:1013F0000E94DF0B20E030E040E251E40E94D40C78
:101400000E94460D2B0170933B0260933A0263E009
:101410008EE00E94A203A201550C660B770B85E0BB
:1014200093E00E946B0468E771E085E093E00E941E
:10143000070582E00E94B600892BF1F48091380202
:1014400090913902892BC1F4B0923902A0923802EE
:101450001092370210923602109235021092340226
:101460006CE771E089E492E00E945C0466E371E05D
:1014700089E492E00E945C048091380290913902E4
:10148000019709F0F1C087E00E94B6008130910514
:1014900079F52091320230913302232B49F5609186
:1014A0003602709137026F5F7F4F709337026093FF
:1014B00036029093330280933202CE0101960E944D
:1014C0009C0566EA71E0CE0107960E946B05BE019D
:1014D0006F5F7F4FCE0107960E94E6050E94F004E1
:1014E000CE0107960E941906CE0101960E941906A8
:1014F00087E00E94B600892B51F4809132029091CE
:101500003302019721F4109233021092320280913B
:10151000340290913502019709F0A6C080913602FD
:1015200090913702889E8001899E100D112410939E
:10153000310200933002109239021092380262E0B8
:101540008EE00E94A203A801110F660B770B85E0C5
:1015500093E00E946B046AE771E085E093E00E94EB
:10156000070510923702109236021092350210923F
:1015700034026DED71E086EE92E00E940705409125
:10158000300250913102052E000C660B770B86EE6F
:1015900092E00E946B0462EC71E086EE92E00E94A1
:1015A000070563EE71E086EE92E00E940705409128
:1015B0003A0250913B02052E000C660B770B86EE2B
:1015C00092E00E946B0466E371E086EE92E00E9476
:1015D0005C0460913A0270913B02CE0101960E9438
:1015E0009C056091300270913102CE0107960E94F5
:1015F0009C0564EC71E0CE010D960E946B05BE0166
:10160000695F7F4FCE010D960E94E6058C01FC01BB
:10161000E480F580F7E0EF0EF11CB7010E94310580
:101620008823D9F1F801208131818481958161EE8F
:1016300071E0820F931F0E948F0FF801F582E48200
:10164000BE016F5F7F4FC8010E94E6050E94F00453
:10165000CE010D960E941906CE0107960E9419062A
:10166000CE0101960E941906C114D10409F478CE66
:101670000E94B301882309F473CE0E94000070CE4B
:101680009E3040F42850310981E001C0880F2A952E
:10169000EAF7F5CD2E503109F7CFC8010E94590560
:1016A000CFCF8CE191E09093E7028093E6028091A6
:1016B0002C0290912D02865E924071F4E091F90225
:1016C000F091FA0290818091FB02809589238083BA
:1016D00010922D0210922C020895BB274A3031F44B
:1016E000992322F4BDE2909581959F4F0C94790B3C
:1016F000BB27FB015527AA27880F991FAA1FA417EC
:1017000010F0A41B83955051B9F7A05DAA3308F0DF
:10171000A95DA193009779F7B111B1931192CB0113
:101720000C94920BDC01FC01672F71917723E1F798
:10173000329704C07C916D9370836291AE17BF079E
:10174000C8F30895E89409C097FB3EF490958095FE
:10175000709561957F4F8F4F9F4F9923A9F0F92F77
:1017600096E9BB279395F695879577956795B795F5
:10177000F111F8CFFAF4BB0F11F460FF1BC06F5FDB
:101780007F4F8F4F9F4F16C0882311F096E911C0ED
:10179000772321F09EE8872F762F05C0662371F00E
:1017A00096E8862F70E060E02AF09A95660F771F22
:1017B000881FDAF7880F9695879597F908950E9404
:1017C000F20B0C94630C0E94550C38F00E945C0CD8
:1017D00020F0952311F00C944C0C0C94520C112415
:1017E0000C94970C0E94740C70F3959FC1F3950FA5
:1017F00050E0551F629FF001729FBB27F00DB11D95
:10180000639FAA27F00DB11DAA1F649F6627B00D24
:10181000A11D661F829F2227B00DA11D621F739F0D
:10182000B00DA11D621F839FA00D611D221F749F1B
:101830003327A00D611D231F849F600D211D822F62
:10184000762F6A2F11249F5750409AF0F1F0882389
:101850004AF0EE0FFF1FBB1F661F771F881F9150B6
:101860005040A9F79E3F510580F00C944C0C0C940D
:10187000970C5F3FE4F3983ED4F386957795679590
:10188000B795F795E7959F5FC1F7FE2B880F911DE0
:101890009695879597F9089597F99F6780E870E086
:1018A00060E008959FEF80EC089500240A941616D6
:1018B000170618060906089500240A94121613063E
:1018C000140605060895092E0394000C11F48823CC
:1018D00052F0BB0F40F4BF2B11F460FF04C06F5FE8
:1018E0007F4F8F4F9F4F089557FD9058440F551FBE
:1018F00059F05F3F71F04795880F97FB991F61F092
:101900009F3F79F087950895121613061406551F08
:10191000F2CF4695F1DF08C0161617061806991F74
:10192000F1CF86957105610508940895E894BB2769
:1019300066277727CB0197F908952F923F924F9210
:101940005F926F927F928F929F92AF92BF92CF924F
:10195000DF92EF92FF920F931F93CF93DF93CDB758
:10196000DEB7CA1BDB0B0FB6F894DEBF0FBECDBFD0
:1019700009942A88398848885F846E847D848C84A1
:101980009B84AA84B984C884DF80EE80FD800C81AA
:101990001B81AA81B981CE0FD11D0FB6F894DEBF8D
:1019A0000FBECDBFED0108950E94E80C0C94630CAE
:1019B0000E945C0C58F00E94550C40F029F45F3FE7
:1019C00029F00C944C0C51110C94970C0C94520C63
:1019D0000E94740C68F39923B1F3552391F3951B7E
:1019E000550BBB27AA2762177307840738F09F5F40
:1019F0005F4F220F331F441FAA1FA9F335D00E2EAD
:101A00003AF0E0E832D091505040E695001CCAF719
:101A10002BD0FE2F29D0660F771F881FBB1F2617DC
:101A200037074807AB07B0E809F0BB0B802DBF01B3
:101A3000FF2793585F4F3AF09E3F510578F00C9482
:101A40004C0C0C94970C5F3FE4F3983ED4F38695CE
:101A500077956795B795F7959F5FC9F7880F911DA3
:101A60009695879597F90895E1E0660F771F881F8F
:101A7000BB1F621773078407BA0720F0621B730B42
:101A8000840BBA0BEE1F88F7E09508950E944D0D68
:101A90006894B1110C94970C08950E947C0C88F006
:101AA0009F5798F0B92F9927B751B0F0E1F0660F22
:101AB000771F881F991F1AF0BA95C9F714C0B13063
:101AC00091F00E94960CB1E008950C94960C672F4B
:101AD000782F8827B85F39F0B93FCCF38695779592
:101AE0006795B395D9F73EF490958095709561957B
:101AF0007F4F8F4F9F4F0895A1E21A2EAA1BBB1B49
:101B0000FD010DC0AA1FBB1FEE1FFF1FA217B307C9
:101B1000E407F50720F0A21BB30BE40BF50B661FDF
:101B2000771F881F991F1A9469F7609570958095A3
:101B300090959B01AC01BD01CF010895EE0FFF1FF1
:101B40000590F491E02D09940F931F93CF93DF93A9
:101B50008230910510F482E090E0E0911F03F09153
:101B6000200330E020E0B0E0A0E0309799F42115A8
:101B7000310509F44AC0281B390B24303105D8F54A
:101B80008A819B816115710589F1FB0193838283B1
:101B9000FE0111C04081518102811381481759070C
:101BA000E0F04817590799F4109761F012960C93DA
:101BB000129713961C933296CF01DF91CF911F910C
:101BC0000F91089500931F0310932003F4CF211564
:101BD000310551F04217530738F0A901DB019A0192
:101BE000BD01DF01F801C1CFEF01F9CF90932003D0
:101BF00080931F03CDCFFE01E20FF31F81939193DA
:101C00002250310939832883D7CF20911D03309189
:101C10001E03232B41F420910201309103013093E4
:101C20001E0320931D032091000130910101211515
:101C3000310541F42DB73EB74091040150910501A3
:101C4000241B350BE0911D03F0911E03E217F307EF
:101C5000A0F42E1B3F0B2817390778F0AC014E5F1C
:101C60005F4F2417350748F04E0F5F1F50931E0338
:101C700040931D03819391939FCFF0E0E0E09CCFD0
:101C8000CF93DF930097E9F0FC0132971382128221
:101C9000A0911F03B0912003ED0130E020E01097E8
:101CA000A1F420813181820F931F20911D03309177
:101CB0001E032817390709F061C0F0931E03E09353
:101CC0001D03DF91CF910895EA01CE17DF07E8F5F4
:101CD0004A815B819E0141155105B1F7E901FB8302
:101CE000EA8349915991C40FD51FEC17FD0761F4A0
:101CF000808191810296840F951FE90199838883E1
:101D0000828193819B838A83F0E0E0E012968D913B
:101D10009C9113970097B9F52D913C911197CD01A6
:101D20000296820F931F20911D0330911E032817E6
:101D3000390739F6309751F51092200310921F039E
:101D4000B0931E03A0931D03BCCFD383C2834081F5
:101D50005181840F951FC817D90761F44E5F5F4FFB
:101D600088819981480F591F518340838A819B81C3
:101D7000938382832115310509F0B0CFF0932003BE
:101D8000E0931F039ECFFD01DC01C0CF13821282BE
:101D9000D7CFB0E0A0E0EFECFEE00C949F0C8C01FC
:101DA000009751F4CB010E94A40D8C01C801CDB75E
:101DB000DEB7E0E10C94BB0CFC01E60FF71F9C01C1
:101DC00022503109E217F30708F49DC0D901CD91E3
:101DD000DC911197C617D70798F0C530D10530F3BD
:101DE000CE0104978617970708F3C61BD70B2297D7
:101DF000C193D1936D937C93CF010E94400ED6CFB7
:101E00005B01AC1ABD0A4C018C0E9D1EA0911F03F4
:101E1000B0912003512C412CF12CE12C109731F57D
:101E200080911D0390911E038815990509F05CC0EF
:101E30004616570608F058C08091000190910101A4
:101E4000009741F48DB79EB7409104015091050170
:101E5000841B950BE817F90708F055C0F0931E0393
:101E6000E0931D03F90171836083A0CF8D919C9154
:101E7000119712966C90129713967C901397A81551
:101E8000B90559F56C0142E0C40ED11CCA14DB043B
:101E900020F1AC014A195B09DA011296159780F01E
:101EA0006282738251834083D9016D937C93E114E4
:101EB000F10471F0D7011396FC93EE93129776CF4D
:101EC00022968C0F9D1FF90191838083F301EFCF40
:101ED000F0932003E0931F0369CF4816590608F4D6
:101EE0002C017D01D3019ACFCB010E94A40D7C016E
:101EF000009749F0AE01B8010E94860FC8010E9408
:101F0000400E870153CF10E000E050CFFB01DC0111
:101F100002C001900D9241505040D8F70895FB0146
:101F2000DC0101900D920020E1F7089510E0C2E677
:101F3000D0E004C0FE010E949E0D2196C336D10759
:061F4000C9F7F894FFCF81
:101F460000002103800000000000E901490176013C
:101F56003602A70185019901000000006F024901C0
:101F660003036E02CB02E102560200000000560493
:101F76004901030302030D0A004845414C54482019
:101F86004D4F4E49544F52494E470054494D4520F6
:101F9600494E20534543203A2000424F445920548D
:101FA600454D502020203A200048422050455220DE
:101FB6004D494E20203A20002020200053746172A3
:101FC6007420627574746F6E2070726573736564C5
:101FD6002E204D6F6E69746F72696E67207374611F
:101FE600727465642E00486561727462656174205E
:101FF60064657465637465642120436F756E743A15
:1020060020002C00446174612073656E742076692B
:102016006120426C7565746F6F74683A2048423A65
:0A202600002C2054656D703A000094
:00000001FF
